S0160000556E6974794150505F54657374312E73726563E4
S11300000C942A000C9447000C9447000C9447006D
S11300100C9447000C9447000C9447000C94470040
S11300200C9447000C9447000C9447000C94470030
S11300300C9447000C945D020C9447000C94340219
S11300400C9447000C9447000C9447000C94470010
S11300500C94470011241FBECFE5D8E0DEBFCDBF0E
S113006011E0A0E6B0E0EAE2FCE002C005900D92E7
S1130070A832B107D9F721E0A8E2B1E001C01D928E
S1130080A336B207E1F70E9458010C9413060C94AE
S11300900000982F9695969596958770613009F48F
S11300A055C020F0623009F4A1C008959130C1F028
S11300B028F0923039F19330B9F108954AB321E030
S11300C030E0B90102C0660F771F8A95E2F7CB01D1
S11300D0942F982B9ABB9BB3809589238BBB08954F
S11300E047B321E030E0B90102C0660F771F8A955B
S11300F0E2F7CB01942F982B97BB98B38095892373
S113010088BB089544B321E030E0B90102C0660F12
S1130110771F8A95E2F7CB01942F982B94BB95B364
S11301208095892385BB089541B321E030E0B9016E
S113013002C0660F771F8A95E2F7CB01942F982BA4
S113014091BB92B38095892382BB08959130C1F00D
S113015028F0923039F19330B9F108954AB321E08F
S113016030E0B90102C0660F771F8A95E2F7CB0130
S11301708095942F98239ABB9BB389238BBB0895B6
S113018047B321E030E0B90102C0660F771F8A95BA
S1130190E2F7CB018095942F982397BB98B38923DA
S11301A088BB089544B321E030E0B90102C0660F72
S11301B0771F8A95E2F7CB018095942F982394BBFF
S11301C095B3892385BB089541B321E030E0B9019B
S11301D002C0660F771F8A95E2F7CB018095942FB2
S11301E0982391BB92B3892382BB08959130C1F0C7
S11301F028F0923039F19330B9F108954AB321E0EF
S113020030E0B90102C0660F771F8A95E2F7CB018F
S1130210962F909594239ABB9BB3892B8BBB0895FF
S113022047B321E030E0B90102C0660F771F8A9519
S1130230E2F7CB01962F9095942397BB98B3892B23
S113024088BB089544B321E030E0B90102C0660FD1
S1130250771F8A95E2F7CB01962F9095942394BB50
S113026095B3892B85BB089541B321E030E0B901F2
S113027002C0660F771F8A95E2F7CB01962F9095FF
S1130280942391BB92B3892B82BB0895CF93C0E092
S113029009C0EC2FF0E0E05AFF4F60818C2F0E94E0
S11302A04900CF5FC032A8F3CF910895089508950F
S11302B00E94460180E895E20E940A0280E890E0EC
S11302C00E94430543E250E06CE870E082E891E06C
S11302D00E94070544E250E06CE970E080EB91E095
S11302E00E94070545E250E06CEA70E08DED91E074
S11302F00E9407050E946605FFCF620F731F841FCB
S1130300951F0895AF92CF92DF92EF92FF920F93D1
S11303101F9322E030E040E050E061E070E080E0D4
S113032090E00E947D019B01AC010F2EF2E1AF2E03
S1130330F02D0F2EF3E3CF2ED12CE12CF12CF02D48
S113034000E010E063E070E080E090E00E948A0446
S11303501F910F91FF90EF90DF90CF90AF90089591
S1130360AF92CF92DF92EF92FF920F931F9322E00E
S113037030E040E050E06FEF7FEFCB010E947D0161
S11303809B01AC010F2EF2E1AF2EF02D0F2EF8E3FE
S1130390CF2ED12CE12CF12CF02D00E010E065E003
S11303A070E080E090E00E948A041F910F91FF901A
S11303B0EF90DF90CF90AF900895AF92CF92DF92FD
S11303C0EF92FF920F931F932EEF3FEF4FEF5FEFEC
S11303D061E070E080E090E00E947D019B01AC014F
S11303E00F2EF2E1AF2EF02D0F2EFCE3CF2ED12CE9
S11303F0E12CF12CF02D00E010E06FEF7FEFCB014A
S11304000E948A041F910F91FF90EF90DF90CF908C
S1130410AF9008959C011BB888E18AB986E880BD35
S1130420C901A0E0B0E0880F991FAA1FBB1F880F65
S1130430991FAA1FBB1F9C01AD01220F331F441F2C
S1130440551F220F331F441F551F60E072E18AE7D6
S113045090E00E94B0052150310930BD29B90895BA
S11304605D9BFECF8CB908951F920F920FB60F9229
S113047011242F933F934F935F936F937F938F93A5
S11304809F93AF93BF93EF93FF93E0912801F09173
S11304902901309709F00995FF91EF91BF91AF9130
S11304A09F918F917F916F915F914F913F912F9188
S11304B00F900FBE0F901F9018951F920F920FB6BA
S11304C00F9211242F933F934F935F936F937F93D6
S11304D08F939F93AF93BF93EF93FF93E0912A0180
S11304E0F0912B01309709F00995FF91EF91BF919D
S11304F0AF919F918F917F916F915F914F913F91B8
S11305002F910F900FBE0F901F9018954F925F92EE
S11305106F927F928F929F92AF92BF92CF92DF920F
S1130520EF92FF924B015C01C12CD12C7601C39454
S113053012C0CC0CDD1CEE1CFF1CD701C601880FB9
S1130540991FAA1FBB1F880F991FAA1FBB1FC80E84
S1130550D91EEA1EFB1EC501B401A70196010E9423
S1130560B0052A3031054105510518F7C501B4011C
S1130570A70196010E94B0050F2EFAE04F2E512CD0
S1130580612C712CF02DCA01B901A30192010E94C2
S1130590B00580E3860F0E943002C701B601A301B3
S11305A092010E94B00569017A01232B242B252B8B
S11305B0E9F6FF90EF90DF90CF90BF90AF909F90BF
S11305C08F907F906F905F904F900895CF92DF92BD
S11305D0EF92FF926B017C0199235CF48DE20E94FF
S11305E03002F094E094D094C094C11CD11CE11C5E
S11305F0F11CC701B6010E948602FF90EF90DF90C4
S1130600CF900895CF92DF92EF92FF92CF936B0138
S11306107C01493010F4C42F20C0C8E01EC0C15072
S11306208C2F90E0880F991F880F991FA7019601BE
S113063004C056954795379527958A95D2F7DA01E0
S1130640C9018F7099278A30910524F4805D0E9436
S1130650300203C0895C0E943002C111E0CFCF9107
S1130660FF90EF90DF90CF900895CF93DF93EC014C
S1130670888190EE980F9F3518F40E9430021FC0B5
S11306808D3039F48CE50E94300282E70E943002FA
S113069016C08A3039F48CE50E9430028EE60E943E
S11306A030020DC08CE50E94300288E70E943002BF
S11306B0688170E080E090E042E00E940203DF91F4
S11306C0CF910895CF93DF93EC01892B29F407C0D0
S11306D0CE010E943503219688818111F9CFDF91E3
S11306E0CF910895CF92DF92EF92FF926A017B013E
S11306F00E9462038AE30E943002C701B6010E948D
S1130700E6028AE30E94300280912E0190912F012B
S11307100E9462038AE30E943002FF90EF90DF9010
S1130720CF900895AB01BC0180912C0190912D01D3
S11307300E9472038AE191E00E9462038AE30E94AC
S1130740300208950F931F93CF93DF93EC018091B0
S1130750300190913101892BF1F087E191E00E9401
S1130760620387EC90E00E9462030CE211E0F8015E
S1130770848195810E946203F80186819781892B87
S113078051F08CEB90E00E946203809132019091D1
S113079033010E946203209739F087E191E00E94BF
S11307A06203CE010E946203DF91CF911F910F91EA
S11307B00895CF92DF92EF92FF92CF936B017C0169
S11307C0C42F44FF3FC04139D1F587E20E94300273
S11307D0D701C6018097A109B1098F359105A105FB
S11307E0B10520F48C2D0E94300225C08DE0C8167E
S11307F0D104E104F10439F48CE50E94300282E76B
S11308000E94300218C08AE0C816D104E104F10441
S113081039F48CE50E9430028EE60E9430020BC04F
S11308208CE50E94300288E70E94300242E0C70152
S1130830B6010E94020387E20E94300215C00E94A2
S1130840E60212C045FF03C00E9486020DC080E389
S11308500E94300288E70E9430024C2F4F70440FF0
S1130860C701B6010E940203CF91FF90EF90DF9081
S1130870CF9008958091480190914901A0914A0137
S1130880B0914B01892B8A2B8B2B71F0ECE2F1E0B8
S113089084899589A689B7890196A11DB11D848B88
S11308A0958BA68BB78B28C080914401909145010C
S11308B0A0914601B0914701892B8A2B8B2B79F4A7
S11308C0ECE2F1E0408551856285738580819181F8
S11308D00E9472038FE191E00E9462030DC0ECE27A
S11308E0F1E080899189A289B3890196A11DB11D86
S11308F0808B918BA28BB38BECE2F1E0108E118E86
S1130900128E138E148E158E168E178E8AE00E9408
S1130910300208954F925F926F927F92AF92CF927E
S1130920DF92EF92FF920F931F93CF93DF9300D048
S113093000D0CDB7DEB769837A838B839C8329018A
S11309403A018091440190914501A0914601B091F2
S11309504701892B8A2B8B2B61F48091480190915C
S11309604901A0914A01B0914B01892B8A2B8B2B11
S113097031F061E070E08CE491E00E94F20589813D
S11309809A81AB81BC8182179307A407B50769F1EB
S1130990C701B6010E9492038CE091E00E946203B9
S11309A04A2D69817A818B819C810E94D90386E0DA
S11309B091E00E9462034A2DC301B2010E94D9034F
S11309C0C8010E94A20381E090E0A0E0B0E080931F
S11309D0440190934501A0934601B093470161E01F
S11309E070E08CE491E00E94F2050F900F900F905C
S11309F00F90DF91CF911F910F91FF90EF90DF90B7
S1130A00CF90AF907F906F905F904F900895CF9369
S1130A10DF9300D0CDB7DEB79A838983ECE2F1E0AF
S1130A2073836283052E000C660B770B4087518716
S1130A306287738784859585A685B7850196A11DF0
S1130A40B11D84879587A687B7871582148217827C
S1130A5016828CE491E00E94D205892B29F40E942D
S1130A605601E981FA8109958CE491E00E94D2054E
S1130A70892B11F40E9457010E943A040F900F90A1
S1130A80DF91CF910895ECE2F1E0918380831382AA
S1130A90128210861186128613861486158616868F
S1130AA01786108A118A128A138A148A158A168A5A
S1130AB0178A108E118E128E138E148E158E168E2A
S1130AC0178E15821482178216820895CF93DF93AE
S1130AD08AE00E9430028EEE90E00E9462038AE077
S1130AE00E943002CCE2D1E06C857D858E859F85A5
S1130AF00E94E60286EE90E00E946203688979898A
S1130B008A899B890E94E6028BED90E00E94620331
S1130B106C897D898E899F890E94E60281ED90E02F
S1130B200E9462038AE00E94300288899989AA8916
S1130B30BB89892B8A2B8B2B29F484E291E00E94B8
S1130B40620304C08AE191E00E9462038AE00E9489
S1130B50300280913C0190913D01DF91CF91089545
S1130B60A1E21A2EAA1BBB1BFD010DC0AA1FBB1FAD
S1130B70EE1FFF1FA217B307E407F50720F0A21B1F
S1130B80B30BE40BF50B661F771F881F991F1A948C
S1130B9069F760957095809590959B01AC01BD01B6
S1130BA0CF010895DC012D923D924D925D926D929C
S1130BB07D928D929D92AD92BD92CD92DD92ED92F9
S1130BC0FD920D931D93CD93DD93FF91EF918DB71E
S1130BD08D938EB78D938FB78D93ED93FD93882767
S1130BE099270994DC01CB0181309105811D2D9059
S1130BF03D904D905D906D907D908D909D90AD90C9
S1130C00BD90CD90DD90ED90FD900D911D91CD9115
S1130C10DD91ED91FD910D90F894FEBF0FBEEDBFF7
S10D0C20ED91FD910994F894FFCFC3
S1130C2A01000000000000010000000000000100B3
S1130C3A000000000202020201000000000002009B
S1130C4A2E2E2F2E2F6D61696E2E630074657374B8
S1130C5A5F616464315F636865636B0074657374B0
S1130C6A5F616464325F636865636B00746573749F
S1130C7A5F616464335F636865636B002041726714
S1130C8A756D656E74200046756E6374696F6E20A7
S1130C9A002049676E6F7265642000204661696CA2
S1130CAA75726573200020546573747320002D2DAA
S1130CBA2D2D2D2D2D2D2D2D2D2D2D2D2D2D2D2D56
S1130CCA2D2D2D2D2D00205761732000204578707D
S1130CDA656374656420002E20004641494C005027
S10B0CEA415353004F4B00007D
S9030000FC
